{
  "contractName": "SmartToken",
  "abi": [
    {
      "constant": true,
      "inputs": [],
      "name": "name",
      "outputs": [
        {
          "name": "",
          "type": "string"
        }
      ],
      "payable": false,
      "stateMutability": "view",
      "type": "function"
    },
    {
      "constant": false,
      "inputs": [
        {
          "name": "_spender",
          "type": "address"
        },
        {
          "name": "_value",
          "type": "uint256"
        }
      ],
      "name": "approve",
      "outputs": [
        {
          "name": "success",
          "type": "bool"
        }
      ],
      "payable": false,
      "stateMutability": "nonpayable",
      "type": "function"
    },
    {
      "constant": true,
      "inputs": [],
      "name": "changer",
      "outputs": [
        {
          "name": "",
          "type": "address"
        }
      ],
      "payable": false,
      "stateMutability": "view",
      "type": "function"
    },
    {
      "constant": true,
      "inputs": [],
      "name": "totalSupply",
      "outputs": [
        {
          "name": "",
          "type": "uint256"
        }
      ],
      "payable": false,
      "stateMutability": "view",
      "type": "function"
    },
    {
      "constant": true,
      "inputs": [],
      "name": "version",
      "outputs": [
        {
          "name": "",
          "type": "string"
        }
      ],
      "payable": false,
      "stateMutability": "view",
      "type": "function"
    },
    {
      "constant": true,
      "inputs": [],
      "name": "standard",
      "outputs": [
        {
          "name": "",
          "type": "string"
        }
      ],
      "payable": false,
      "stateMutability": "view",
      "type": "function"
    },
    {
      "constant": true,
      "inputs": [
        {
          "name": "",
          "type": "address"
        }
      ],
      "name": "balanceOf",
      "outputs": [
        {
          "name": "",
          "type": "uint256"
        }
      ],
      "payable": false,
      "stateMutability": "view",
      "type": "function"
    },
    {
      "constant": true,
      "inputs": [],
      "name": "owner",
      "outputs": [
        {
          "name": "",
          "type": "address"
        }
      ],
      "payable": false,
      "stateMutability": "view",
      "type": "function"
    },
    {
      "constant": true,
      "inputs": [],
      "name": "numDecimalUnits",
      "outputs": [
        {
          "name": "",
          "type": "uint8"
        }
      ],
      "payable": false,
      "stateMutability": "view",
      "type": "function"
    },
    {
      "constant": true,
      "inputs": [],
      "name": "symbol",
      "outputs": [
        {
          "name": "",
          "type": "string"
        }
      ],
      "payable": false,
      "stateMutability": "view",
      "type": "function"
    },
    {
      "constant": true,
      "inputs": [],
      "name": "transfersEnabled",
      "outputs": [
        {
          "name": "",
          "type": "bool"
        }
      ],
      "payable": false,
      "stateMutability": "view",
      "type": "function"
    },
    {
      "constant": true,
      "inputs": [
        {
          "name": "_owner",
          "type": "address"
        },
        {
          "name": "_spender",
          "type": "address"
        }
      ],
      "name": "allowance",
      "outputs": [
        {
          "name": "remaining",
          "type": "uint256"
        }
      ],
      "payable": false,
      "stateMutability": "view",
      "type": "function"
    },
    {
      "constant": true,
      "inputs": [
        {
          "name": "",
          "type": "address"
        }
      ],
      "name": "participationOf",
      "outputs": [
        {
          "name": "",
          "type": "bool"
        }
      ],
      "payable": false,
      "stateMutability": "view",
      "type": "function"
    },
    {
      "constant": false,
      "inputs": [
        {
          "name": "newOwner",
          "type": "address"
        }
      ],
      "name": "transferOwnership",
      "outputs": [],
      "payable": false,
      "stateMutability": "nonpayable",
      "type": "function"
    },
    {
      "inputs": [
        {
          "name": "_name",
          "type": "string"
        },
        {
          "name": "_symbol",
          "type": "string"
        },
        {
          "name": "_numDecimalUnits",
          "type": "uint8"
        }
      ],
      "payable": false,
      "stateMutability": "nonpayable",
      "type": "constructor"
    },
    {
      "payable": false,
      "stateMutability": "nonpayable",
      "type": "fallback"
    },
    {
      "anonymous": false,
      "inputs": [
        {
          "indexed": false,
          "name": "_prevChanger",
          "type": "address"
        },
        {
          "indexed": false,
          "name": "_newChanger",
          "type": "address"
        }
      ],
      "name": "ChangerUpdate",
      "type": "event"
    },
    {
      "anonymous": false,
      "inputs": [
        {
          "indexed": true,
          "name": "previousOwner",
          "type": "address"
        },
        {
          "indexed": true,
          "name": "newOwner",
          "type": "address"
        }
      ],
      "name": "OwnershipTransferred",
      "type": "event"
    },
    {
      "anonymous": false,
      "inputs": [
        {
          "indexed": true,
          "name": "_from",
          "type": "address"
        },
        {
          "indexed": true,
          "name": "_to",
          "type": "address"
        },
        {
          "indexed": false,
          "name": "_value",
          "type": "uint256"
        }
      ],
      "name": "Transfer",
      "type": "event"
    },
    {
      "anonymous": false,
      "inputs": [
        {
          "indexed": true,
          "name": "_owner",
          "type": "address"
        },
        {
          "indexed": true,
          "name": "_spender",
          "type": "address"
        },
        {
          "indexed": false,
          "name": "_value",
          "type": "uint256"
        }
      ],
      "name": "Approval",
      "type": "event"
    },
    {
      "constant": false,
      "inputs": [
        {
          "name": "_numDecimalUnits",
          "type": "uint8"
        }
      ],
      "name": "setNumDecimalUnits",
      "outputs": [],
      "payable": false,
      "stateMutability": "nonpayable",
      "type": "function"
    },
    {
      "constant": false,
      "inputs": [
        {
          "name": "_disable",
          "type": "bool"
        }
      ],
      "name": "disableTransfers",
      "outputs": [],
      "payable": false,
      "stateMutability": "nonpayable",
      "type": "function"
    },
    {
      "constant": false,
      "inputs": [
        {
          "name": "_to",
          "type": "address"
        },
        {
          "name": "_amount",
          "type": "uint256"
        }
      ],
      "name": "issue",
      "outputs": [],
      "payable": false,
      "stateMutability": "nonpayable",
      "type": "function"
    },
    {
      "constant": false,
      "inputs": [
        {
          "name": "_from",
          "type": "address"
        },
        {
          "name": "_amount",
          "type": "uint256"
        }
      ],
      "name": "destroy",
      "outputs": [],
      "payable": false,
      "stateMutability": "nonpayable",
      "type": "function"
    },
    {
      "constant": false,
      "inputs": [
        {
          "name": "_changer",
          "type": "address"
        }
      ],
      "name": "setChanger",
      "outputs": [],
      "payable": false,
      "stateMutability": "nonpayable",
      "type": "function"
    },
    {
      "constant": false,
      "inputs": [
        {
          "name": "_to",
          "type": "address"
        },
        {
          "name": "_value",
          "type": "uint256"
        }
      ],
      "name": "transfer",
      "outputs": [
        {
          "name": "success",
          "type": "bool"
        }
      ],
      "payable": false,
      "stateMutability": "nonpayable",
      "type": "function"
    },
    {
      "constant": false,
      "inputs": [
        {
          "name": "_from",
          "type": "address"
        },
        {
          "name": "_to",
          "type": "address"
        },
        {
          "name": "_value",
          "type": "uint256"
        }
      ],
      "name": "transferFrom",
      "outputs": [
        {
          "name": "success",
          "type": "bool"
        }
      ],
      "payable": false,
      "stateMutability": "nonpayable",
      "type": "function"
    }
  ],
  "bytecode": "0x60606040526040805190810160405280600981526020017f546f6b656e20302e31000000000000000000000000000000000000000000000081525060009080519060200190620000519291906200027a565b506020604051908101604052806000815250600190805190602001906200007a9291906200027a565b50602060405190810160405280600081525060029080519060200190620000a39291906200027a565b5060006003556040805190810160405280600381526020017f302e31000000000000000000000000000000000000000000000000000000000081525060069080519060200190620000f69291906200027a565b506000600760006101000a81548160ff021916908360ff1602179055506001600760016101000a81548160ff0219169083151502179055506000600760026101000a81548173ffffffffffffffffffffffffffffffffffffffff021916908373ffffffffffffffffffffffffffffffffffffffff16021790555034156200017c57600080fd5b60405162001dd238038062001dd28339810160405280805182019190602001805182019190602001805190602001909190505082828160019080519060200190620001c99291906200027a565b508060029080519060200190620001e29291906200027a565b50505033600560006101000a81548173ffffffffffffffffffffffffffffffffffffffff021916908373ffffffffffffffffffffffffffffffffffffffff16021790555060008351141580156200023b57506001825110155b80156200024a57506006825111155b15156200025657600080fd5b80600760006101000a81548160ff021916908360ff16021790555050505062000329565b828054600181600116156101000203166002900490600052602060002090601f016020900481019282601f10620002bd57805160ff1916838001178555620002ee565b82800160010185558215620002ee579182015b82811115620002ed578251825591602001919060010190620002d0565b5b509050620002fd919062000301565b5090565b6200032691905b808211156200032257600081600090555060010162000308565b5090565b90565b611a9980620003396000396000f30060606040526004361061011d576000357c0100000000000000000000000000000000000000000000000000000000900463ffffffff16806306fdde0314610134578063095ea7b3146101c257806311b0ea161461021c5780631608f18f1461027157806318160ddd1461029657806323b872dd146102bf57806354fd4d50146103385780635a3b7e42146103c65780635e48e96d1461045457806370a082311461047a578063867904b4146104c75780638da5cb5b1461050957806393ef937c1461055e57806395d89b411461058d578063a24835d11461061b578063a9059cbb1461065d578063bef97c87146106b7578063c4c02c2d146106e4578063dd62ed3e1461071d578063f00eaafc14610789578063f2fde38b146107da575b341561012857600080fd5b6000151561013257fe5b005b341561013f57600080fd5b610147610813565b6040518080602001828103825283818151815260200191508051906020019080838360005b8381101561018757808201518184015260208101905061016c565b50505050905090810190601f1680156101b45780820380516001836020036101000a031916815260200191505b509250505060405180910390f35b34156101cd57600080fd5b610202600480803573ffffffffffffffffffffffffffffffffffffffff169060200190919080359060200190919050506108b1565b604051808215151515815260200191505060405180910390f35b341561022757600080fd5b61022f610959565b604051808273ffffffffffffffffffffffffffffffffffffffff1673ffffffffffffffffffffffffffffffffffffffff16815260200191505060405180910390f35b341561027c57600080fd5b6102946004808035151590602001909190505061097f565b005b34156102a157600080fd5b6102a9610a4e565b6040518082815260200191505060405180910390f35b34156102ca57600080fd5b61031e600480803573ffffffffffffffffffffffffffffffffffffffff1690602001909190803573ffffffffffffffffffffffffffffffffffffffff16906020019091908035906020019091905050610a54565b604051808215151515815260200191505060405180910390f35b341561034357600080fd5b61034b610b46565b6040518080602001828103825283818151815260200191508051906020019080838360005b8381101561038b578082015181840152602081019050610370565b50505050905090810190601f1680156103b85780820380516001836020036101000a031916815260200191505b509250505060405180910390f35b34156103d157600080fd5b6103d9610be4565b6040518080602001828103825283818151815260200191508051906020019080838360005b838110156104195780820151818401526020810190506103fe565b50505050905090810190601f1680156104465780820380516001836020036101000a031916815260200191505b509250505060405180910390f35b341561045f57600080fd5b610478600480803560ff16906020019091905050610c82565b005b341561048557600080fd5b6104b1600480803573ffffffffffffffffffffffffffffffffffffffff16906020019091905050610cfc565b6040518082815260200191505060405180910390f35b34156104d257600080fd5b610507600480803573ffffffffffffffffffffffffffffffffffffffff16906020019091908035906020019091905050610d14565b005b341561051457600080fd5b61051c610f40565b604051808273ffffffffffffffffffffffffffffffffffffffff1673ffffffffffffffffffffffffffffffffffffffff16815260200191505060405180910390f35b341561056957600080fd5b610571610f66565b604051808260ff1660ff16815260200191505060405180910390f35b341561059857600080fd5b6105a0610f79565b6040518080602001828103825283818151815260200191508051906020019080838360005b838110156105e05780820151818401526020810190506105c5565b50505050905090810190601f16801561060d5780820380516001836020036101000a031916815260200191505b509250505060405180910390f35b341561062657600080fd5b61065b600480803573ffffffffffffffffffffffffffffffffffffffff16906020019091908035906020019091905050611017565b005b341561066857600080fd5b61069d600480803573ffffffffffffffffffffffffffffffffffffffff169060200190919080359060200190919050506111e0565b604051808215151515815260200191505060405180910390f35b34156106c257600080fd5b6106ca61121f565b604051808215151515815260200191505060405180910390f35b34156106ef57600080fd5b61071b600480803573ffffffffffffffffffffffffffffffffffffffff16906020019091905050611232565b005b341561072857600080fd5b610773600480803573ffffffffffffffffffffffffffffffffffffffff1690602001909190803573ffffffffffffffffffffffffffffffffffffffff16906020019091905050611465565b6040518082815260200191505060405180910390f35b341561079457600080fd5b6107c0600480803573ffffffffffffffffffffffffffffffffffffffff1690602001909190505061146d565b604051808215151515815260200191505060405180910390f35b34156107e557600080fd5b610811600480803573ffffffffffffffffffffffffffffffffffffffff1690602001909190505061148d565b005b60018054600181600116156101000203166002900480601f0160208091040260200160405190810160405280929190818152602001828054600181600116156101000203166002900480156108a95780601f1061087e576101008083540402835291602001916108a9565b820191906000526020600020905b81548152906001019060200180831161088c57829003601f168201915b505050505081565b60008260008173ffffffffffffffffffffffffffffffffffffffff16141515156108da57600080fd5b6000831415156108e957600080fd5b8373ffffffffffffffffffffffffffffffffffffffff163373ffffffffffffffffffffffffffffffffffffffff167f8c5be1e5ebec7d5bd14f71427d1e84f3dd0314c0f7b2291e5b200ac8c7c3b925856040518082815260200191505060405180910390a3600191505092915050565b600760029054906101000a900473ffffffffffffffffffffffffffffffffffffffff1681565b600560009054906101000a900473ffffffffffffffffffffffffffffffffffffffff1673ffffffffffffffffffffffffffffffffffffffff163273ffffffffffffffffffffffffffffffffffffffff161480610a285750600760029054906101000a900473ffffffffffffffffffffffffffffffffffffffff1673ffffffffffffffffffffffffffffffffffffffff163373ffffffffffffffffffffffffffffffffffffffff16145b1515610a3057fe5b8015600760016101000a81548160ff02191690831515021790555050565b60035481565b6000600560009054906101000a900473ffffffffffffffffffffffffffffffffffffffff1673ffffffffffffffffffffffffffffffffffffffff163273ffffffffffffffffffffffffffffffffffffffff161480610aff5750600760029054906101000a900473ffffffffffffffffffffffffffffffffffffffff1673ffffffffffffffffffffffffffffffffffffffff163373ffffffffffffffffffffffffffffffffffffffff16145b1515610b0757fe5b600760019054906101000a900460ff161515610b1f57fe5b610b2a8484846115e5565b1515610b3257fe5b610b3b846117d0565b600190509392505050565b60068054600181600116156101000203166002900480601f016020809104026020016040519081016040528092919081815260200182805460018160011615610100020316600290048015610bdc5780601f10610bb157610100808354040283529160200191610bdc565b820191906000526020600020905b815481529060010190602001808311610bbf57829003601f168201915b505050505081565b60008054600181600116156101000203166002900480601f016020809104026020016040519081016040528092919081815260200182805460018160011615610100020316600290048015610c7a5780601f10610c4f57610100808354040283529160200191610c7a565b820191906000526020600020905b815481529060010190602001808311610c5d57829003601f168201915b505050505081565b600560009054906101000a900473ffffffffffffffffffffffffffffffffffffffff1673ffffffffffffffffffffffffffffffffffffffff163373ffffffffffffffffffffffffffffffffffffffff16141515610cde57600080fd5b80600760006101000a81548160ff021916908360ff16021790555050565b60046020528060005260406000206000915090505481565b600560009054906101000a900473ffffffffffffffffffffffffffffffffffffffff1673ffffffffffffffffffffffffffffffffffffffff163273ffffffffffffffffffffffffffffffffffffffff161480610dbd5750600760029054906101000a900473ffffffffffffffffffffffffffffffffffffffff1673ffffffffffffffffffffffffffffffffffffffff163373ffffffffffffffffffffffffffffffffffffffff16145b1515610dc557fe5b8160008173ffffffffffffffffffffffffffffffffffffffff1614151515610dec57600080fd5b81600081111515610dfc57600080fd5b3073ffffffffffffffffffffffffffffffffffffffff168473ffffffffffffffffffffffffffffffffffffffff1614151515610e3757600080fd5b610e4360035484611874565b600381905550610e92600460008673ffffffffffffffffffffffffffffffffffffffff1673ffffffffffffffffffffffffffffffffffffffff1681526020019081526020016000205484611874565b600460008673ffffffffffffffffffffffffffffffffffffffff1673ffffffffffffffffffffffffffffffffffffffff168152602001908152602001600020819055508373ffffffffffffffffffffffffffffffffffffffff163073ffffffffffffffffffffffffffffffffffffffff167fddf252ad1be2c89b69c2b068fc378daa952ba7f163c4a11628f55a4df523b3ef856040518082815260200191505060405180910390a350505050565b600560009054906101000a900473ffffffffffffffffffffffffffffffffffffffff1681565b600760009054906101000a900460ff1681565b60028054600181600116156101000203166002900480601f01602080910402602001604051908101604052809291908181526020018280546001816001161561010002031660029004801561100f5780601f10610fe45761010080835404028352916020019161100f565b820191906000526020600020905b815481529060010190602001808311610ff257829003601f168201915b505050505081565b600560009054906101000a900473ffffffffffffffffffffffffffffffffffffffff1673ffffffffffffffffffffffffffffffffffffffff163273ffffffffffffffffffffffffffffffffffffffff1614806110c05750600760029054906101000a900473ffffffffffffffffffffffffffffffffffffffff1673ffffffffffffffffffffffffffffffffffffffff163373ffffffffffffffffffffffffffffffffffffffff16145b15156110c857fe5b806000811115156110d857600080fd5b611121600460008573ffffffffffffffffffffffffffffffffffffffff1673ffffffffffffffffffffffffffffffffffffffff1681526020019081526020016000205483611892565b600460008573ffffffffffffffffffffffffffffffffffffffff1673ffffffffffffffffffffffffffffffffffffffff1681526020019081526020016000208190555061117060035483611892565b6003819055503073ffffffffffffffffffffffffffffffffffffffff168373ffffffffffffffffffffffffffffffffffffffff167fddf252ad1be2c89b69c2b068fc378daa952ba7f163c4a11628f55a4df523b3ef846040518082815260200191505060405180910390a3505050565b6000600760019054906101000a900460ff1615156111fa57fe5b61120483836118ab565b151561120c57fe5b611215336117d0565b6001905092915050565b600760019054906101000a900460ff1681565b6000600560009054906101000a900473ffffffffffffffffffffffffffffffffffffffff1673ffffffffffffffffffffffffffffffffffffffff163273ffffffffffffffffffffffffffffffffffffffff1614806112dd5750600760029054906101000a900473ffffffffffffffffffffffffffffffffffffffff1673ffffffffffffffffffffffffffffffffffffffff163373ffffffffffffffffffffffffffffffffffffffff16145b15156112e557fe5b600760029054906101000a900473ffffffffffffffffffffffffffffffffffffffff1673ffffffffffffffffffffffffffffffffffffffff168273ffffffffffffffffffffffffffffffffffffffff161415151561134257600080fd5b600760029054906101000a900473ffffffffffffffffffffffffffffffffffffffff16905081600760026101000a81548173ffffffffffffffffffffffffffffffffffffffff021916908373ffffffffffffffffffffffffffffffffffffffff1602179055507f48097d4514702cbe54e8cb3c6f0663f49237b1f04e7721c3908f4806ff44271081600760029054906101000a900473ffffffffffffffffffffffffffffffffffffffff16604051808373ffffffffffffffffffffffffffffffffffffffff1673ffffffffffffffffffffffffffffffffffffffff1681526020018273ffffffffffffffffffffffffffffffffffffffff1673ffffffffffffffffffffffffffffffffffffffff1681526020019250505060405180910390a15050565b600092915050565b60086020528060005260406000206000915054906101000a900460ff1681565b600560009054906101000a900473ffffffffffffffffffffffffffffffffffffffff1673ffffffffffffffffffffffffffffffffffffffff163373ffffffffffffffffffffffffffffffffffffffff161415156114e957600080fd5b600073ffffffffffffffffffffffffffffffffffffffff168173ffffffffffffffffffffffffffffffffffffffff161415151561152557600080fd5b8073ffffffffffffffffffffffffffffffffffffffff16600560009054906101000a900473ffffffffffffffffffffffffffffffffffffffff1673ffffffffffffffffffffffffffffffffffffffff167f8be0079c531659141344cd1fd0a4f28419497f9722a3daafe3b4186f6b6457e060405160405180910390a380600560006101000a81548173ffffffffffffffffffffffffffffffffffffffff021916908373ffffffffffffffffffffffffffffffffffffffff16021790555050565b60008360008173ffffffffffffffffffffffffffffffffffffffff161415151561160e57600080fd5b8360008173ffffffffffffffffffffffffffffffffffffffff161415151561163557600080fd5b8360008111151561164557600080fd5b61168e600460008973ffffffffffffffffffffffffffffffffffffffff1673ffffffffffffffffffffffffffffffffffffffff1681526020019081526020016000205486611892565b600460008973ffffffffffffffffffffffffffffffffffffffff1673ffffffffffffffffffffffffffffffffffffffff1681526020019081526020016000208190555061171a600460008873ffffffffffffffffffffffffffffffffffffffff1673ffffffffffffffffffffffffffffffffffffffff1681526020019081526020016000205486611874565b600460008873ffffffffffffffffffffffffffffffffffffffff1673ffffffffffffffffffffffffffffffffffffffff168152602001908152602001600020819055508573ffffffffffffffffffffffffffffffffffffffff168773ffffffffffffffffffffffffffffffffffffffff167fddf252ad1be2c89b69c2b068fc378daa952ba7f163c4a11628f55a4df523b3ef876040518082815260200191505060405180910390a3600193505050509392505050565b6000600460008373ffffffffffffffffffffffffffffffffffffffff1673ffffffffffffffffffffffffffffffffffffffff168152602001908152602001600020541415611871576001600860008373ffffffffffffffffffffffffffffffffffffffff1673ffffffffffffffffffffffffffffffffffffffff16815260200190815260200160002060006101000a81548160ff0219169083151502179055505b50565b600080828401905083811015151561188857fe5b8091505092915050565b60008183101515156118a057fe5b818303905092915050565b60008260008173ffffffffffffffffffffffffffffffffffffffff16141515156118d457600080fd5b826000811115156118e457600080fd5b61192d600460003373ffffffffffffffffffffffffffffffffffffffff1673ffffffffffffffffffffffffffffffffffffffff1681526020019081526020016000205485611892565b600460003373ffffffffffffffffffffffffffffffffffffffff1673ffffffffffffffffffffffffffffffffffffffff168152602001908152602001600020819055506119b9600460008773ffffffffffffffffffffffffffffffffffffffff1673ffffffffffffffffffffffffffffffffffffffff1681526020019081526020016000205485611874565b600460008773ffffffffffffffffffffffffffffffffffffffff1673ffffffffffffffffffffffffffffffffffffffff168152602001908152602001600020819055508473ffffffffffffffffffffffffffffffffffffffff163373ffffffffffffffffffffffffffffffffffffffff167fddf252ad1be2c89b69c2b068fc378daa952ba7f163c4a11628f55a4df523b3ef866040518082815260200191505060405180910390a3600192505050929150505600a165627a7a72305820d797cadf1be70144c3baf797239aaeac4c11bc5d65e6d12862cd4ad6bf1f61490029",
  "source": "pragma solidity ^0.4.10;\nimport './ERC20GardenToken.sol';\nimport './Ownable.sol';\nimport './SmartTokenInterface.sol';\n\n/*\n    Open issues:\n    - possibly implement ERC223 standard\n*/\n\n/*\n    Smart Token v0.1\n*/\ncontract SmartToken is ERC20GardenToken, Ownable, SmartTokenInterface {\n    string public version = '0.1';\n    uint8 public numDecimalUnits = 0;       // for display purposes only\n    bool public transfersEnabled = true;    // true if transfer/transferFrom are enabled, false if not\n    address public changer = 0x0;           // changer contract address\n    mapping(address => bool) public participationOf; //map of historic participations of spenders\n\n    // triggered when a token changer is updated/removed\n    event ChangerUpdate(address _prevChanger, address _newChanger);\n\n    /*\n        _name               token name\n        _symbol             token short symbol, 1-6 characters\n        _numDecimalUnits    for display purposes only\n    */\n    function SmartToken(string _name, string _symbol, uint8 _numDecimalUnits)\n    ERC20GardenToken(_name, _symbol)\n    {\n        require(bytes(_name).length != 0 && bytes(_symbol).length >= 1 && bytes(_symbol).length <= 6); // validate input\n        numDecimalUnits = _numDecimalUnits;\n    }\n\n    // verifies that a value is greater than zero\n    modifier validAmount(uint256 _value) {\n        require(_value > 0);\n        _;\n    }\n\n    // allows execution only when transfers aren't disabled\n    modifier transfersAllowed {\n        assert(transfersEnabled);\n        _;\n    }\n\n    // allows execution by the controller or changer\n    modifier controllerOnly {\n        // Important: this allows transfers been performed by external contracts too (!!!)\n        // as long as tx is initiated by the owner\n        assert(tx.origin == owner || msg.sender == changer);\n        _;\n    }\n\n    /*\n        sets the number of display decimal units\n        can only be called by the token owner\n\n        _numDecimalUnits    new number of decimal units\n    */\n    function setNumDecimalUnits(uint8 _numDecimalUnits) public onlyOwner {\n        numDecimalUnits = _numDecimalUnits;\n    }\n\n    /*\n        disables/enables transfers\n        can only be called by the token owner (if no changer is defined) or the changer contract (if a changer is defined)\n\n        _disable    true to disable transfers, false to enable them\n    */\n    function disableTransfers(bool _disable) public controllerOnly {\n        transfersEnabled = !_disable;\n    }\n\n    /*\n        increases the token supply and sends the new tokens to an account\n        can only be called by the token owner (if no changer is defined) or the changer contract (if a changer is defined)\n\n        _to         account to receive the new amount\n        _amount     amount to increase the supply by\n    */\n    function issue(address _to, uint256 _amount)\n    public\n    controllerOnly\n    validAddress(_to)\n    validAmount(_amount)\n    {\n        require(_to != address(this)); // validate input\n        totalSupply = safeAdd(totalSupply, _amount);\n        balanceOf[_to] = safeAdd(balanceOf[_to], _amount);\n        Transfer(this, _to, _amount);\n    }\n\n    /*\n        removes tokens from an account and decreases the token supply\n        can only be called by the token owner (if no changer is defined) or the changer contract (if a changer is defined)\n\n        _from       account to remove the new amount from\n        _amount     amount to decrease the supply by\n    */\n    function destroy(address _from, uint256 _amount)\n    public\n    controllerOnly\n    validAmount(_amount)\n    {\n        balanceOf[_from] = safeSub(balanceOf[_from], _amount);\n        totalSupply = safeSub(totalSupply, _amount);\n        Transfer(_from, this, _amount);\n    }\n\n    /*\n        sets a changer contract address\n        can only be called by the token owner (if no changer is defined) or the changer contract (if a changer is defined)\n        the changer can be set to null to transfer ownership from the changer to the owner\n\n        _changer    new changer contract address (can also be set to 0x0 to remove the current changer)\n    */\n    function setChanger(address _changer) public controllerOnly {\n        require(_changer != changer);\n        address prevChanger = changer;\n        changer = _changer;\n        ChangerUpdate(prevChanger, changer);\n    }\n\n    // ERC20 standard method overrides with some extra functionality\n\n    // send coins\n    function transfer(address _to, uint256 _value) public transfersAllowed returns (bool success) {\n        assert(super.transfer(_to, _value));\n        keepParticipation(msg.sender);\n        return true;\n    }\n\n    // an account/contract attempts to get the coins\n    function transferFrom(address _from, address _to, uint256 _value) public controllerOnly transfersAllowed returns (bool success) {\n        assert(super.transferFrom(_from, _to, _value));\n        keepParticipation(_from);\n        return true;\n    }\n\n    function keepParticipation(address _participant) private {\n        if (balanceOf[_participant] == 0){\n            //down to zero, but we store his participation\n            participationOf[_participant] = true;\n        }\n\n    }\n\n    // fallback\n    function() {\n        assert(false);\n    }\n}",
  "sourcePath": "/Users/kirilivanov/DEV/communities/loyalgarden-microservices-parent/ethservice/src/main/resources/solidity/contracts/SmartToken.sol",
  "compiler": {
    "name": "solc",
    "version": "0.4.21+commit.dfe3193c.Emscripten.clang"
  },
  "schemaVersion": "2.0.0",
  "updatedAt": "2018-04-10T12:49:07.444Z"
}